:020000040800F2
:10000000D04A0020A1010008A9010008AB010008A6
:10001000AD010008AF010008B101000800000000B8
:10002000000000000000000000000000B301000814
:10003000B501000800000000B7010008B901000880
:10004000BB010008BB010008BB010008BB010008A0
:10005000BB010008BB010008BB010008BB01000890
:10006000BB010008BB010008BB010008BB01000880
:10007000BB010008BB010008BB010008BB01000870
:10008000BB010008BB010008BB010008BB01000860
:10009000BB010008BB010008BB010008BB01000850
:1000A000BB010008BB010008BB010008BB01000840
:1000B000BB010008BB010008BB010008BB01000830
:1000C000BB010008BB010008BB010008BB01000820
:1000D000BB01000871310008BB010008BB0100082A
:1000E000BB010008BB010008BB01000800F002F8DA
:1000F00000F047F80AA090E8000C82448344AAF17B
:100100000107DA4501D100F03CF8AFF2090EBAE878
:100110000F0013F0010F18BFFB1A43F0010318473B
:100120003456000054560000103A24BF78C878C1F5
:10013000FAD8520724BF30C830C144BF04680C60ED
:10014000704700000023002400250026103A28BF35
:1001500078C1FBD8520728BF30C148BF0B60704739
:10016000662905F0E881002070471FB500F024FBE8
:1001700004000020002104F0D3F8E0601FBD10B59A
:1001800010BD00F039FC1146FFF7EFFF03F0F0FA65
:1001900000F057FC03B4FFF7F2FF03BC03F089F94A
:1001A0000948804709480047FEE7FEE7FEE7FEE70B
:1001B000FEE7FEE7FEE7FEE7FEE7FEE70448054947
:1001C000054A064B7047000011310008ED00000899
:1001D000D0440020D04A0020D0460020D046002045
:1001E000704700000FB4044910B503AA029800F04C
:1001F000D1FA10BC5DF814FB0400002070B5044671
:1002000085690068C10601D5302600E02026C007B8
:1002100007D070BDD4E9012130469047206A401CC8
:1002200020626D1EF6D570BD70B5044685690078F4
:10023000C00707D170BDD4E9012120209047206A72
:10024000401C20626D1EF6D570BD2DE9F0474FF0C1
:10025000000A89460446C0F820A02046E168884785
:10026000002876D0252806D0D4E901219047206ABD
:10027000401C2062F1E7E168204600258847C4F869
:100280001CA006460027C4F818A02A2E09D0304624
:1002900003F008F938B304EB8708303EC8F818605B
:1002A00019E059F8041B204604EB87029161E168CC
:1002B0008847012F064618D1E069002820DA25F08A
:1002C00020051DE0D8F8180000EB800006EB400088
:1002D0003038C8F818002046E1688847064603F021
:1002E000E1F80028EED1012F0AD02E2E08D12046A9
:1002F000E16888477F1C0646022F45F02005C4DBD5
:10030000A069002803DA404245F00105A061E80732
:1003100001D025F01005B6B1A6F14100192802D888
:10032000203645F400654A463146204625604D4654
:10033000FFF716FF58B1012806D0ED1D25F0070084
:1003400000F1080989E704E005F1040985E7304672
:100350008AE7206ABDE8F0877047704770477047AA
:1003600010B500F02DFA006810BD10B5044600F07D
:1003700027FA046010BD70472DE9FF4F0C461E465A
:100380004FF0FF378BB0D2E90001DDF860800A90B2
:100390008A46C1F30A5505B93D46002108464FF08B
:1003A0000000BAF1000F00F4400005DA00EB800015
:1003B0004FF4400101EA50004FEA9059B9F1010FA2
:1003C00000DDB9460A9850EA4A000ED044F61050B3
:1003D000A5F2FF3545432F14B8F1000F1ED075422A
:1003E000291E1EDDC9F100021CE0B8F1010F4FF01B
:1003F000000001D0302103E0F24305E02154401C0D
:10040000B042FBDB30460022002121540B99C1F899
:100410000880C1E900200FB0BDE8F08FBD1B6D1C46
:10042000DEE74A4600DA694206A800F06BFA06AB3E
:1004300093E8070003AB83E8070050460A9900F0F1
:1004400049FB8DE80700A0F500501F380090039885
:10045000002D0ADD42F21F014A460844002303A989
:100460000390684600F0B2FD09E0A0F500504A464E
:100470001F38002303A90390684600F0BCFD8DE8F7
:1004800007000004000C03D04FF0FF30410800E0EB
:100490001046B8F1000F03D00022009215461EE06E
:1004A000751E05D400F090F9303262556D1EF9D5F5
:1004B000B3460122084302D000227F1C04E02078CA
:1004C000302801D100227F1E002A099784D01DE028
:1004D000112D07DA00F078F9303262556D1C50EAC0
:1004E0000102F5D1084302D00098C8B10EE0002106
:1004F000681E05E0235C625C63542254401E491C64
:100500008142F7DBAB46A81B401E0990002004F88F
:100510000B000B98099AC0F80880C0E9002B7AE715
:1005200011264FF0000857E72DE9F04F88460446A2
:10053000D21D22F0070191B0D1E90001CDE90A01F5
:1005400002F027FF02460B98C00F01D02D2007E0D4
:100550002068810701D52B2002E0202101EAC0009C
:10056000032A099001D0072A05DB034641462046AD
:1005700000F088F90BE12078800601D5E06900E001
:100580000620B8F1650F814606D0B8F1660F18D085
:10059000B8F1670F70D131E00020B9F1110F009070
:1005A00001DB112301E009F101030AAA01A90CA84A
:1005B000FFF7E2FEDDE90C70002609F10105834634
:1005C00047E001204B4600904FF000470AAA01A9DE
:1005D0000CA8FFF7D1FEDDE90DB00C995D460026B1
:1005E00010B909F101000D18B9EB050003D4C0F1F1
:1005F000FF3609F10105A5EB09002BE0B9F1010F68
:1006000001DA4FF001090020B9F1110F00904846BE
:1006100001DD112300E003460AAA01A90CA8FFF797
:10062000ABFEDDE90C704D460026834620780007BE
:100630000AD4AB4500DA5D4601A8012D04DD41195D
:1006400011F8011C302907D04F4502DA17F1040FC9
:1006500004DA012082460FE06D1EEEE7002F02DC77
:10066000ED1B3E4403E0781CA84200DD7D1CB81B56
:1006700000F1010A4FF000472078000703D4AA4593
:1006800001DB4FF0FF3A0021B7F1004F0DF14308B5
:100690008DF8431024D002202B23002F01DA7F4253
:1006A0002D230A21021EA0F1010000DC5FB197FB9F
:1006B000F1FC97FBF1F201FB1C7C17460CF1300CAE
:1006C00008F801CDEEE7A8F10100037021880905C3
:1006D00001D5452100E06521A0F1010800F8011CC9
:1006E00009980FA9A1EB0807FF1D00B101204119CE
:1006F00001EBEA70A1693844081A401EA061207815
:10070000C00602D42046FFF779FD099828B1D4E944
:1007100001219047206A401C20622078C00622D523
:100720002046FFF76BFD1EE0002E04DBB34502DD23
:1007300001A8805D00E03020D4E901219047206AC3
:10074000401C2062761CAAF101005FEA000A0AD16F
:1007500000F032F8C0680168405CD4E9012190479C
:10076000206A401C2062281EA5F10105DCDC07E0A0
:10077000D4E9012118F8010B9047206A401C20623F
:10078000381EA7F10107F3DC2046FFF74DFD0320DB
:1007900011B041E6074B70B50D467B4400F05FF8A1
:1007A0000446284600F020F910B14FF0FF3070BD2C
:1007B000204670BDAB2D00000048704790440020DB
:1007C000004870477044002030B5B0F10A024FEA8B
:1007D000900E71F100034EEA817EB0EB0E0061EBEA
:1007E00091014FEA101E4EEA017E10EB0E0041EB24
:1007F00011114FEA102E4EEA016E10EB0E0041EB84
:1008000011214FEA104E4EEA014E10EB0E0041EB63
:100810001141401841F100014FEAD00040EA417017
:100820004FEAD10110EB80054FEA810444EA90744D
:1008300044EB01046D1944EB0404521BA3414FF037
:10084000000348BF0A3200D530BD401C41F1000111
:1008500030BD000001694A1C02610878704700B58C
:100860008FB0CDE901310021059105497944CDE9E9
:10087000031011466846FFF7E8FC0FB000BD00000A
:10088000E5FFFFFF2DE9F0411F46044603260168FE
:10089000072A01F4006004DB08B116A505E016A5DF
:1008A00003E008B115A500E015A521F010002060B7
:1008B000A069C01EA0610FB1401EA0612046FFF7D5
:1008C0009DFC4FB1D4E9012138469047206A401C75
:1008D0002062C01C206206E0206AFAE7D4E9012108
:1008E00015F8010B9047761EF8D22046FFF79CFCC6
:1008F000BDE8F0814E414E006E616E00494E4600EB
:10090000696E66002DE9F047814616468AB0354883
:1009100078440DC88DE80D0032487844801C03AC43
:100920000DC884E80D0041F69B300844372190FB48
:10093000F1F290FBF1F5A5F1800501FB12041B3CDF
:1009400002D56442012000E00020DFF898A0804634
:100950000027FA44AAF1BE0A0EE0E0070AD03246A8
:10096000684607EB470101230AEB810100F043FBD6
:100970008DE8070064107F1C002CEED1194F7F44D6
:10098000AE3F19E0E80715D007EB04100DF1180A87
:1009900090E80E008AE80E00C068F04201D1981974
:1009A00008903246012306A903A800F024FB03ABFC
:1009B00083E807006D10641C002DE3D14FF00103A4
:1009C00032466946B8F1000F03A802D000F0FEFAE3
:1009D00001E000F010FBC9E90001C9F808200AB0E5
:1009E000BDE8F087284E0000007B00F080007047D3
:1009F00000487047704400207546FFF7F9FFAE4687
:100A000005006946534620F00700854618B020B51A
:100A1000FFF7D4FBBDE820404FF000064FF0000781
:100A20004FF000084FF0000B21F00701AC46ACE896
:100A3000C009ACE8C009ACE8C009ACE8C0098D4603
:100A4000704710B50446AFF300802046BDE8104063
:100A5000FFF7A0BB4FF0013C50F8042B51F8043BCA
:100A60009A4221D1A2EB0C03934313EACC1317D182
:100A700050F8042B51F8043B9A4215D1A2EB0C0319
:100A8000934313EACC130BD150F8042B51F8043BD9
:100A90009A4209D1A2EB0C03934313EACC13DBD0A7
:100AA0004FF00000704700BFD01A01BAB1FA81F1CF
:100AB00001F0180122FA01F0CB40C1F12001DBB2B4
:100AC000C0B2C01A2CFA01F3D11A914311EAC31132
:100AD000E6D170475FEA400C08BF91F0000F4FEA83
:100AE0008C234FEAC12243EA51514FEA1C5018BFF0
:100AF00000F5F0404FEA300018BF41F000415FEAD6
:100B00006C5C00F02980BCF1FF3F08BF40F08040E2
:100B10007047130C06BF12044FF0100C4FF0000C7E
:100B2000130E04BF12020CF1080C130F04BF1201C4
:100B30000CF1040C930F04BF92000CF1020CD30FC4
:100B400004BF52000CF1010C11464FF00002A0F15D
:100B50001F00A0EB0C00704711F0004F08BF70475A
:100B600031F000413FF4D5AF0B0C06BF09044FF044
:100B7000100C4FF0000C0B0E04BF09020CF1080C16
:100B80000B0F04BF09010CF1040C8B0F04BF89008B
:100B90000CF1020CCB0F04BF49000CF1010CCCF19D
:100BA0002003A0EB0C0022FA03F302FA0CF241EA54
:100BB000030100F10100704720F07F4C80EA030040
:100BC00023F07F47ACEB070303F57C5300F00040B4
:100BD00003F1FF032DE980494FEA154B09B44FEAB1
:100BE000144325EA0B4E24EA03480FF2042606EBD1
:100BF000132749083E785FEA320203FB0667C7F510
:100C0000000707FB06F64FEA54374FEAD64606F1CF
:100C1000020607FB066CCCF1005C4FEA1C472CEA8D
:100C2000074C07FB06F40CFB06F504EB15464FEAF0
:100C3000961634BF00204FF000404FEAD13706FB34
:100C400007FC4FEA1C4C0CFB0BF7D21B03FB0CF709
:100C500061EB07010CFB0EF7B0EB074072EB17429C
:100C60000CFB08F734BFA2EB0742B2EB074261EB83
:100C700017414FEA0C444FEA910706FB07FC4FEA85
:100C80001C4C0CFB0BF7B0EBC74072EB573203FB6D
:100C90000CF734BFA2EBC742B2EBC74261EB57314E
:100CA0000CFB0EF7B0EBC70072EB57720CFB08F7AA
:100CB00034BFA2EBC702B2EBC70261EB5771039FCF
:100CC0004FEA816141EA921104EBCC044FEAD1373B
:100CD0004FEA826206FB07FC42EA90124FEA80600C
:100CE0004FEA1C4C0CFB0BF7D21B03FB0CF761EB20
:100CF00007010CFB0EF7B0EB074072EB17420CFB41
:100D000008F734BFA2EB0742B2EB074261EB174191
:100D10004FEA8C554FEA910704EB9C2406FB07FC35
:100D20004FEA1C4C0CFB0BF7B0EBC74072EB573291
:100D300003FB0CF734BFA2EBC742B2EBC74261EB37
:100D400057310CFB0EF7B0EBC70072EB57720CFB80
:100D500008F734BFA2EBC702B2EBC70261EB5771D1
:100D600015EB4C254FEA816141EA92114FEA82620C
:100D70004FEAD13742EA901206FB07FC44F1000427
:100D80004FEA80604FEA1C4C0CFB0BF7D21B03FBB5
:100D90000CF761EB07010CFB0EF7B0EB074072EBB1
:100DA00017420CFB08F734BFA2EB0742B2EB074235
:100DB00061EB174115EB1C154FEA813141EA924175
:100DC0004FEA823242EA90424FEA80304FEA0C7694
:100DD00044F1000448EA03434EEA0B484FF0000E8A
:100DE000B2EB080C71EB030724BF624639464EEBA9
:100DF0000E0E4FF0000B0018524149414BEB0B0B0C
:100E0000B2EB080C71EB03077BF1000B24BF6246C9
:100E100039464EEB0E0E4FF0000B0018524149417F
:100E20004BEB0B0BB2EB080C71EB03077BF1000BE8
:100E300024BF624639464EEB0E0E51EA020718BF38
:100E400046F0010616EB0E7655F1000254F1000152
:100E500003D5BDE88901BDE80088BDE88901BDE88A
:100E60000048B619524141EB0101A3F1010370475B
:100E700080807F7E7D7C7B7A7978777676757473D7
:100E8000727171706F6E6E6D6C6C6B6A6A69686896
:100E9000676666656464636362616160605F5F5E2C
:100EA0005E5D5D5C5C5B5B5A5A59595858575756A2
:100EB0005655555554545353525252515150505007
:100EC0004F4F4F4E4E4D4D4D4C4C4C4B4B4B4A4A59
:100ED0004A4949494848484747474746464645459D
:100EE00045444444444343434342424242414141D6
:100EF000002B9C4630D477002BD01CB54FEA370727
:100F000003B44FF010004FF01001BAF1000F06D0FB
:100F1000BCF1000FDCBF40F0080040F008014FF0CA
:100F200000000FBCBDE810400BF1010BBBF1010F3D
:100F300008BF5FEA170722BF12F1010211F1010198
:100F40004FF0004143F1000300F0004043EA00008D
:100F50007047F9D35708D0E746EA064613F1400F29
:100F60004FEA16461FDD13F1200FDFBF16430A4676
:100F7000002120335B42BED0C3F1200746EA06467B
:100F800002FA07F74FEA164646EA0706C3F12007BA
:100F900022FA03F201FA07F721FA03F14FF00003F6
:100FA00042EA0702A7E746EA020646EA06464FEA91
:100FB000164646EA0106BCBF46EA0646360C4FF026
:100FC00000034FF000024FF0000194E72DE9804C40
:100FD0009A46934670B491E8380007C831EA400C4D
:100FE00048BF34EA430C03D5FFF7E6FDFFF780FF67
:100FF000F0BCBDE8008C2DE9804C9A46934670B455
:1010000091E8380007C810F0804F08BF13F0804FF8
:1010100003D100F005F8FFF76BFFF0BCBDE8008CD2
:1010200020F07F4780EA030023F07F4C07EB0C039E
:10103000A3F57C5300F00040A3F1FE0392F0000FF3
:1010400000F0B38095F0000F00F077802DE90149A2
:101050004FEA11404FEA144621EA004800FB06FC23
:1010600024EA064708FB06F607FB08F800FB07F72B
:1010700018EB06484CEB164C4FEA124B18EB07489E
:101080004FEA15464CEB174022EA0B4E0BFB06FCD1
:1010900025EA06470EFB06F607FB0EFE0BFB07F7DD
:1010A0001EEB064E4CEB164C4FF000061EEB074EA7
:1010B0004CEB174B18EB0B0840F1000018EB0E0B34
:1010C00058EB000840F100008F1A4FF000013CBFC0
:1010D000C943661B14BFB5EB040C00213CBFC943D8
:1010E000F61B4FEA17444EEA8E0E27EA04454FEAF4
:1010F0001C4704FB07622CEA074C05FB07F70CFBB7
:1011000005F604FB0CFC16EB074642EB174216EB08
:101110000C4642EB1C421BEB060658EB0202414117
:1011200046EA9E0601D5BDE80189B619524141EB58
:101130000101A3F10103BDE801894FEA14454FEA1B
:10114000114724EA054621EA074C05FB07F406FB94
:1011500007F70CFB06F105FB0CFC11EB074144EB18
:1011600017444FEA124711EB0C4144EB1C4422EAAE
:10117000074C05FB07F206FB07F70CFB06F605FB21
:101180000CFC16EB074642EB174216EB0C4642EB03
:101190001C456A1854F1000148BF7047B619524106
:1011A00041EB0101A3F10103704795F0000F37D027
:1011B0004FEA11424FEA144721EA024624EA074C5B
:1011C00002FB07F106FB07F70CFB06F402FB0CFC25
:1011D00014EB074441EB17414FEA154714EB0C445D
:1011E00041EB1C4125EA074C02FB07F506FB07F71C
:1011F0000CFB06F602FB0CFC16EB074645EB17450D
:1012000016EB0C4645EB1C42121951F1000148BF88
:101210007047B619524141EB0101A3F10103704738
:101220004FEA14454FEA114724EA054621EA074CE4
:1012300005FB07F106FB07F70CFB06F24FF0000673
:1012400005FB0CFC12EB074241EB174112EB0C4281
:1012500051EB1C4148BF7047921841EB0101A3F1CB
:101260000103704702460B46D11A11F1220F05DD2A
:1012700011F11E0F02DA6FF00500704711F1020F35
:1012800004DD022902DA6FF00500F6E71E2904DD0D
:10129000222902DA6FF00500EFE70020EDE70000F9
:1012A0002DE9F04FC3B00646894600250024A2462A
:1012B00016F8400F00F00F0006903078C0F30310CE
:1012C00007903088C0F30320089030881E2101EB7E
:1012D00010300990B6F802B0403E00BF25E0A500EE
:1012E00004F1220016F8100000F00F002AA941F8BE
:1012F000250004F1220016F81000C0F303112AAAF9
:10130000681C42F8201004F1220036F81000C0F3E7
:101310000321A81C42F8201004F1220036F8100026
:10132000010BE81C42F82010641C062CD7DB0024BB
:101330000CE02AA850F82400072806DD2AA850F857
:10134000240010382AA941F82400641C182CF0DB72
:10135000002425E0A50004F1280016F8100000F094
:101360000F000AA941F8250004F1280016F8100022
:10137000C0F303110AAA681C42F8201004F12800E7
:1013800036F81000C0F30321A81C42F8201004F125
:10139000280036F81000010BE81C42F82010641CED
:1013A000082CD7DB00240CE00AA850F824000728FA
:1013B00006DD0AA850F8240010380AA941F82400D4
:1013C000641C202CF0DB002478E04FF0000A71E070
:1013D000202000FB04A505F1400136F81110C1F3EF
:1013E000051003F0CBFE09F1440141F8250051F846
:1013F0002500354903F0EEFF0BD209F1440151F805
:1014000025004FF0854104F021F809F1440141F82D
:1014100025000122069902FA01F003F0AFFE07460B
:1014200009F1440050F82510384603F007FF09F190
:10143000440141F825002AA951F82410089A914046
:1014400001EB0B030AA951F82A10079A914058188A
:1014500003F094FE074609F1440050F82510384681
:1014600003F05CFD09F1440141F82500099803F0FF
:10147000CAF902460B46CDE9000100204FF0804139
:1014800002F0ECF90746884609F1440151F82500BD
:1014900003F018FD3A464346CDE9020103F044F853
:1014A000CDE9040102F052FF09F1440141F82500A1
:1014B0000AF1010ABAF1200F8ADB641C182C84DBC4
:1014C00043B0BDE8F08F00000000F841FEB50446CF
:1014D0000D46A08A00F40060061186F0800694F89C
:1014E0006A1001F03F0003F049FE0090284900987F
:1014F00003F070FF05D24FF08541009803F0A6FF7E
:1015000000904FF08341009803F076FD0090B4F80E
:101510006A10C1F3841003F031FE01901D49019857
:1015200003F058FF05D24FF08441019803F08EFF7D
:1015300001904FF08041019803F05EFD0190B4F8F6
:101540006A10C80A03F01AFE02901249029803F0CA
:1015500041FF05D24FF08441029803F077FF0290DB
:101560004FF08241029803F047FD029085F8256014
:1015700042F650200099415142F6502129440198E9
:10158000486042F65021294402988860FEBD000060
:101590000000F841000070412DE9F04F8BB0044687
:1015A0000D46B4F840001B2101EB10300490B4F854
:1015B0007400C0F30900ADF81C00BDF91C00B0F5C3
:1015C000007F06DBBDF81C00A0F5806000B2ADF81E
:1015D0001C00B4F87400800AADF81E00BDF91E00AE
:1015E0001F2805DDBDF81E00403800B2ADF81E0012
:1015F000BDF81E00BDF81C10084400B2ADF81E0076
:10160000B4F87210C1F3090003F0B8FD08905E4908
:10161000089803F0DFFE05D24FF08941089803F0E7
:1016200015FF0890049803F0EEF802460B46CDE94A
:10163000000100204FF0804102F010F9CDE90201D5
:10164000089803F03FFC0746DDE9022302F06CFF37
:10165000824602F07BFE0890B4F87210880A03F00C
:101660008DFD09904949099803F0B4FE05D24FF069
:101670008541099803F0EAFE09904FF086410998E8
:1016800003F0BAFC80464FF07E5103F047FC07465A
:10169000089903F0D3FD099094F8760003F06EFDED
:1016A00005903B49059803F095FE05D24FF0874120
:1016B000059803F0CBFE059094F87000C0F303107A
:1016C00000F10806304603F09EF8824652460B466B
:1016D00000204FF0804102F0C1F8CDE900010598EB
:1016E00003F0F0FB0746DDE9002302F01DFFCDE922
:1016F000020102F02BFE2862B4F87610080A03F00B
:101700003DFD06902249069803F064FE05D24FF095
:101710008741069803F09AFE0690B4F87000C0F373
:101720000329484603F06FF802460B46CDE9000155
:1017300000204FF0804102F091F882468B460698D7
:1017400003F0C0FB52465B46CDE9020102F0ECFE1D
:10175000074602F0FBFDE86142F64420089941513A
:1017600042F64421294409984860BDF81C1042F60D
:101770004C204153BDF81E0042F64C2129444880BC
:101780000BB0BDE8F08F00000080FF430000F8417F
:101790000000FE422DE9F04782460D460024002756
:1017A000A046A14600BF0DE04FF6FF7042F65C2157
:1017B000294421F8140042F66621294421F8140036
:1017C000601C84B2052CEFDB00241EE004F1400015
:1017D0003AF8100038B942F65C20284420F8174047
:1017E000781C87B20FE004F140001AF8100000F0F6
:1017F000010040B142F66620284420F8184008F164
:1018000001001FFA80F8601C84B2B4F5407F04DA4E
:10181000052F02DAB8F1050FD8DB042F02DD6FF0D7
:10182000020964E0B8F1040F02DD6FF003095EE025
:1018300007EB0800042802DD6FF0040957E00024DC
:1018400019E0661C13E042F65C222A4432F81610B6
:1018500042F65C222A4432F81400FFF703FD814669
:10186000B9F1000F02D04846BDE8F087761CBE42B1
:10187000E9DB601C84B2BC42E3DB002418E0661C98
:1018800012E042F666222A4432F8161042F6662228
:101890002A4432F81400FFF7E5FC8146B9F1000F45
:1018A00001D04846E0E7761C4645EADB601C84B27E
:1018B0004445E4DB002418E0002612E042F66622EC
:1018C0002A4432F8161042F65C222A4432F81400F8
:1018D000FFF7C8FC8146B9F1000F01D04846C3E7C5
:1018E000761C4645EADB601C84B2BC42E4DB484619
:1018F000BAE70246B2F8603018B2B0F5004F00DB2C
:1019000000B288827047000070B504460D46B4F8F6
:101910007810080A03F032FC06460949304603F005
:1019200059FD05D24FF08741304603F08FFD064642
:101930004FF08C41304603F05FFB0646AE6270BD4F
:101940000000FE422DE9F04705460C4600BF7A35FF
:10195000A888C0F3013000EB80004FEA40086FF028
:101960002700A0870021E1872879C0F303114020D8
:101970000153A888C0F30321422001534020005B9B
:1019800000FB08F001B240200153B4F94010B4F953
:10199000420000FB081001B242200153287900F0F8
:1019A0000F0000F10807012000FA07F7287803F07C
:1019B000E5FBE0622988080A03F0E0FB2063A878D1
:1019C00003F0DCFB606369887A3D080A03F0D6FB0C
:1019D000A063002623E004F12C0151F826001249EF
:1019E00003F0F8FC0BD204F12C0151F826004FF063
:1019F000874103F02BFD04F12C0141F82600384605
:101A000003F0BCFB814604F12C0151F82600494645
:101A100003F0F2FA04F12C0141F82600761C042EA2
:101A2000D9DBBDE8F08700000000FE422DE9F04F51
:101A30008DB006460D460024A34600200890B6F857
:101A40006C00000A4FFA80FABAF17F0F01DD4FFAFD
:101A50008AFA8DF830A096F86C004FFA80F8B8F149
:101A60007F0F01DD4FFA88F88DF83280B6F86E00EE
:101A7000000A47B27F2F00DD7FB28DF8317096F8F3
:101A80006E004FFA80F9B9F17F0F01DD4FFA89F945
:101A90008DF8339096F87000C0F3031008300B9067
:101AA00096F8700000F00F000A904FF0000B98E0DD
:101AB000002008908FE02021089801FB0B042046AD
:101AC000E31704EBD3635B1121464FEAE47C04EB9C
:101AD0009C6C4FEAAC1CA3EB4C03224604EBD27C7B
:101AE0004FEA6C0CA4EB4C0C4FF0020E0EFB03C340
:101AF000DBB20993403116F81110C1F3420003F034
:101B00003DFB41F24421294441F8240041F24421A3
:101B1000294451F82400364903F05CFC0DD241F20F
:101B20004421294451F824004FF0824103F08EFCF7
:101B300041F24421294441F8240001220A9902FA81
:101B400001F003F01BFB079041F24420284450F8B9
:101B50002410079803F072FB41F24421294441F814
:101B600024000CAA0999505603F008FB079041F293
:101B70004420284450F82410079803F0CFF941F28C
:101B80004421294441F824000B9802F03CFE02460F
:101B90000B46CDE9000100204FF0804101F05EFED0
:101BA000CDE9040141F24421294451F8240003F015
:101BB00089F9CDE90201DDE9042302F0B5FCCDE9A4
:101BC000060102F0C3FB41F24421294441F82400FC
:101BD0000898401C089008982028FFF66CAF0BF17D
:101BE000010BBBF1180FFFF663AF0DB0BDE8F08F2E
:101BF000000040402DE9F04F8DB005460E46002410
:101C0000A34600200890B5F868004FEA103ABAF1F0
:101C1000070F03DDAAF110004FFA80FA8DF82CA00F
:101C2000B5F86800C0F30328B8F1070F03DDA8F189
:101C300010004FFA80F88DF82E8095F86800C0F3F8
:101C40000317072F02DDA7F1100047B28DF82D70A2
:101C500095F8680000F00F09B9F1070F03DDA9F14D
:101C600010004FFA80F98DF82F90B5F87000C0F38E
:101C700003200A904FF0000B57E0002008904FE03F
:101C80002021089801FB0B042046E31704EBD363E3
:101C90005B1121464FEAE47C04EB9C6C4FEAAC1CE0
:101CA000A3EB4C03224604EBD27C4FEA6C0CA4EB72
:101CB0004C0C4FF0020E0EFB03C3DBB209930BA9D1
:101CC000099BC85603F05AFA41F64461314441F881
:101CD00024000A9802F097FD02460B46CDE9000168
:101CE00000204FF0804101F0B9FDCDE9040141F63B
:101CF0004461314451F8240003F0E4F8CDE90201D5
:101D0000DDE9042302F010FCCDE9060102F01EFB20
:101D100041F64461314441F824000898401C089081
:101D200008982028ACDB0BF1010BBBF1180FA4DBEA
:101D30000DB0BDE8F08F2DE9F047B8B002460B4674
:101D400000210020002492F8208008F00F0C92F867
:101D50002080C8F30317B2F82080C8F30326B2F836
:101D600022800FFA88F5B5F5004F00DB2DB2002078
:101D70002BE0810000F1120812F8188008F00F081B
:101D80000DF1800949F8218000F1120812F818803D
:101D9000C8F303190DF1800A01F101084AF82890EF
:101DA00000F1120832F81880C8F3032901F1020883
:101DB0004AF8289000F1120832F818804FEA1839D2
:101DC00001F103084AF82890401C0628D1DB0020C6
:101DD00011E00DF1800858F82080B8F1070F09DDF7
:101DE0000DF1800858F82080A8F110080DF1800945
:101DF00049F82080401C1828EBDB002027E08100F8
:101E000000F1180812F8188008F00F084DF821802A
:101E100000F1180812F81880C8F3031901F101083D
:101E20004DF8289000F1180832F81880C8F30329FB
:101E300001F102084DF8289000F1180832F81880D6
:101E40004FEA183901F103084DF82890401C082882
:101E5000D5DB00200BE05DF82080B8F1070F05DD31
:101E60005DF82080A8F110084DF82080401C202843
:101E7000F1DB00204CE0002447E04FF0200808FB95
:101E8000004101F1400832F818804FEA982903F622
:101E9000444828F8119038F91180B8F11F0F0BDD74
:101EA00003F6444838F81180A8F140080FFA88F981
:101EB00003F6444828F8119003F6444838F8118096
:101EC0004FF0010909FA0CF908FB09F80FFA88F933
:101ED00003F6444828F811900DF1800838F8208066
:101EE00008FA06F808EB05093DF8248008FA07F817
:101EF000C14403F6444838F81180C8440FFA88F901
:101F000003F6444828F81190641C202CB5DB401CD3
:101F10001828B0DB38B0BDE8F08700002DE9F04F9D
:101F200087B004460D46B4F86410880A03F026F919
:101F300082462B49504603F04DFA05D24FF08541B9
:101F4000504603F083FA82464FF08B41504603F02F
:101F500053F88246B4F86410C1F3090003F00EF997
:101F600006462049304603F035FA05D24FF0894144
:101F7000304603F06BFA06464FF08241304603F0DC
:101F80003BF80646B4F862000FFA80FB0022164BBD
:101F900010464FF0804101F061FC07468846218CD5
:101FA00001F4704002F018FC3A464346CDE90001C6
:101FB00002F0BAFA00220D4BCDE9020102F0F8F965
:101FC000CDE9040102F0C2F98146C5F804A0AE6073
:101FD000A5F80CB0C5F8109007B0BDE8F08F000070
:101FE0000000F8410080FF4300002C40000020402A
:101FF000B0F87030C3F3013281F82420704700003C
:1020000070B504460D4694F8780003F0B7F806461C
:102010000949304603F0DEF905D24FF087413046DA
:1020200003F014FA06464FF08441304602F0E4FF14
:102030000646AE6170BD00000000FE4230B50A46A3
:10204000B0F8664021B2B0F86640210A7F2902DD6F
:10205000A1F5807421B24C0121B290F86630A3F54D
:1020600080744FF40055C5EB44131180538030BD8C
:102070002DE9F0410246002500260020002300241F
:10208000002791F803C00CF00F0591F803C00CF085
:10209000100CBCF1000F03D091F802C04CEA05050A
:1020A00091F800C0BCF1000F31D0146800202BE083
:1020B0004FF0010C0CFA00F3B1F800C00CEA030673
:1020C0009E4220D183004FF00F0C0CFA03F7BC4363
:1020D00005FA03FC4CEA040491F803C0BCF1280F94
:1020E00006D14FF0010C0CFA00FCC2F814C00AE053
:1020F00091F803C0BCF1480F05D14FF0010C0CFA68
:1021000000FCC2F810C0401C0828D1D31460B1F8FC
:1021100000C0BCF1FF0F34DD546800202EE000F158
:10212000080C4FF0010808FA0CF3B1F800C00CEAF3
:1021300003069E4221D183004FF00F0C0CFA03F7E7
:10214000BC4305FA03FC4CEA040491F803C0BCF15B
:10215000280F05D100F1080C08FA0CF8C2F8148019
:1021600091F803C0BCF1480F07D100F1080C4FF003
:10217000010808FA0CF8C2F81080401C0828CED3D9
:102180005460BDE8F0810246002093680B400BB11B
:10219000012000E0002070474161704701617047F5
:1021A00010B5044680211A48FFF7F6FF4021184871
:1021B000FFF7F4FF022001F0D5F914E040211448A4
:1021C000FFF7E1FF60B980211148FFF7E7FF022028
:1021D00001F0C8F980210E48FFF7DEFF002010BD96
:1021E000022001F0BFF9201EA4F10101CCB2E5D11B
:1021F00080210748FFF7D2FF022001F0B3F98021C8
:102200000348FFF7C9FF022001F0ACF90120E6E71F
:10221000000C01400FB5ABB00020139012902B982A
:10222000B0F882061490DDE92B0100F0FDFC2A9045
:10223000DDE92B0100F07CFC2990FE49299802F091
:102240006DFE0D9002F03EFE0022FB4BCDE90E012B
:1022500001F004FBCDE9100102F078F82890F5496F
:102260002E9802F05BFE0D9002F02CFE0022F24B45
:10227000CDE90E0101F0F2FACDE9100102F066F8A5
:102280002790DDE9270103F0E1F810902D9902F085
:10229000B3FE1190279903F0CEF826902C98C06ACF
:1022A000E6490F9002F0CAFF4FF07E51109002F005
:1022B00035FE014611904FF07E5002F09DFE1690C3
:1022C0004FF07E5017902C98B0F940000F9002F01C
:1022D00055FF10902C98406B01460F90109802F01B
:1022E000ADFF4FF07E51119002F018FE18902C981F
:1022F000B0F94210B0F94000081A0E9002F03EFF0B
:102300000F902C98806B01460E900F9802F096FF6C
:102310004FF07E51109002F001FE11901898014686
:102320001090119802F08AFF19902B98B0F81406BB
:10233000119002F03BFF2590C149259803F04AF81F
:1023400005D24FF08F41259803F080F825902C9806
:10235000B0F91400109002F011FF1190259902F0CD
:102360004BFE25902B98B0F8800600F48050401169
:1023700020902B98B0F81006119002F017FF2390D0
:102380002B98B0F85006119002F010FF2490002016
:10239000139024E023A9139851F82000A849119024
:1023A00003F018F80CD223A9139851F820004FF02D
:1023B0008F41119003F04AF823AA139942F82100A3
:1023C00023A9139851F820001190259902F036FFA7
:1023D00023AA139942F821001398401C13901398D4
:1023E0000228D7DB97492A9803F030F80D902C98F3
:1023F000C06901460C900D9802F020FF4FF07E510D
:102400000E9002F08BFD90491090299803F01EF871
:102410000B902C98006A01460A900B9802F00EFF70
:102420004FF07E510C9002F079FD0E902C9800F543
:102430000050B0F94C0A0C9002F0A0FE0D900E99DD
:1024400002F0FCFE0F90109902F0F8FE1190239814
:1024500001461090119802F0EEFF23902C9890F80E
:102460002510209881423DD176492A9802F0EEFF4E
:102470000D902C98C06901460C900D9802F0DEFE7C
:102480004FF07E510E9002F049FD6F49109029984F
:1024900002F0DCFF0B902C98006A01460A900B9822
:1024A00002F0CCFE4FF07E510C9002F037FD0E9002
:1024B00042F64C212C980844B0F902000C9002F02E
:1024C0005DFE0D900E9902F0B9FE0F90109902F08A
:1024D000B5FE1190249801461090119802F0ABFFC0
:1024E000249047E057492A9802F0B0FF0D902C98AD
:1024F000C06901460C900D9802F0A0FE4FF07E518D
:102500000E9002F00BFD50491090299802F09EFFAA
:102510000B902C98006A01460A900B9802F08EFEF0
:102520004FF07E510C9002F0F9FC0E9042F64C21D7
:102530002C980844B0F902000B9002F01FFE0C909A
:102540002C9800F50050D0F8500A01460B900C98DA
:1025500002F0E4FC0D900E9902F070FE0F901099BD
:1025600002F06CFE1190249801461090119802F030
:1025700062FF2490002012901CE21298C117109064
:1025800000EBD16041111298C217119000EB9260DC
:102590008011A1EB400040B21F901298119000EB07
:1025A000D07041101298A0EB41011F98414048B2F1
:1025B0001E901298801CC1170E9000EB9170811034
:1025C0001298C01CC2170F9000EB9270A1EBA001F3
:1025D0001298401CC217109000EB927001EBA00102
:1025E0001298C217119000EB9270A1EBA0011F98F6
:1025F0004000C0F10100414348B21C90209810B93E
:102600001F981D9001E01E981D902B98B0F882161F
:102610001D9881427ED112992B9830F811001190AB
:1026200002F0C4FD22900649229802F0D3FE13D294
:102630000CE000003393884300001040000020426B
:1026400000FEFF46333353400000C8414FF08F4136
:10265000229802F0FBFE22902599229802F0EEFDCE
:102660002290D8492A9802F0F1FE0D9041F644617B
:102670002C980144129851F8200001460C900D98B6
:1026800002F0DCFD4FF07E510E9002F047FCCE4987
:102690001090299802F0DAFE0B9041F244212C9818
:1026A0000144129851F8200001460A900B9802F05C
:1026B000C5FD4FF07E510C9002F030FC0E902C982E
:1026C00000F64440129930F911000C9002F056FDCA
:1026D0000D900E9902F0B2FD0F90109902F0AEFD30
:1026E0001190229902F0A7FE22902C9890F82510C4
:1026F000209881422AD01C9802F040FD0F9042F6AB
:1027000050212C980844406801460E900F9802F022
:1027100095FD00E04BE111901F984000401E0D9088
:1027200002F02CFD0E9042F650212C98084480684F
:1027300001460D900E9802F081FD0F90229902F053
:10274000EDFB1090119902F081FE22902D992298B4
:1027500002F052FC229023A9149851F82000109006
:102760002C9880690F90109902F068FD11902299C1
:1027700002F061FE22909449299802F067FE0E90C3
:102780002C98806A01460D900E9802F057FD4FF08C
:102790007E510F9002F0C2FB119042F644212C981A
:1027A0000144149851F820000E902C9880690D90E7
:1027B0000E9902F043FD0F902C984430129950F876
:1027C000210001460E900F9802F035FE10901199ED
:1027D00002F034FD21902699219802F02FFD0A90F5
:1027E000229902F09BFB0B9002F06CFBCDE90E01ED
:1027F000219802F067FB0022744BCDE90A0101F039
:102800002DF8CDE90C01DDE90E2302F04BF8CDE9FE
:10281000100101F09BFD1B902C98006B0B9002F0B7
:1028200051FBCDE90E011B9802F04CFBCDE90801EC
:1028300001F000FDCDE90A0101F0FCFCCDE90C013D
:10284000DDE90E2302F02EF8CDE9100101F07EFD46
:102850001B902C98006B5E49039002F0EFFC4FF048
:102860007E51049002F0E7FD0590219902F0E6FC0C
:1028700006901B9902F052FB01460790229802F045
:10288000BBFB0890269902F049FB099002F01AFB65
:10289000CDE90A0101F0CEFCCDE90C0101F0CAFC42
:1028A0004FF0C0424B4BCDE90E0102F021FACDE9C9
:1028B000100101F04BFD1A902C98B0F93E001090D9
:1028C00002F05CFC11901A9902F084FD02D2002003
:1028D00015901DE02C98B0F94000109002F04EFCCD
:1028E00011901A9902F076FD02D2012015900FE0A6
:1028F0002C98B0F94200109002F040FC11901A9907
:1029000002F068FD02D20220159001E0032015902C
:102910002C983C30159930F91100019002F02EFCF2
:1029200002901A9902F087FD03902C982C3015998B
:1029300050F8210001460290039802F07FFC4FF00E
:102940007E51049002F0EAFA16A90690159851F803
:10295000200001460490219802F070FC0590069931
:1029600002F06CFC01460790229802F045FB0890AB
:10297000269902F0D3FA099002F0A4FACDE90A01EF
:1029800001F058FCCDE90C0101F054FC4FF0C042BD
:10299000104BCDE90E0102F0ABF9CDE9100101F0C9
:1029A000D5FC1A90129A30991A9841F82200129880
:1029B000401C12901298B0F5407FFFF6DEAD2FB0AC
:1029C00000BD0000333353400000C8410000084000
:1029D000339388436612714070B505460C46234612
:1029E0004FF450724FF41051284600F081F970BD39
:1029F00070B504460D4629462046FFF71FFB2946C1
:102A00002046FFF78BFA29462046FEF772FF29463B
:102A10002046FFF7F5FA29462046FFF7E9FA29464E
:102A20002046FEF771FF29462046FEF78BFF294618
:102A30002046FEF735FC29462046FFF77CF929465B
:102A40002046FEF7F3FF29462046FFF7D3F8294634
:102A50002046FEF7A1FD29462046FEF737FD294610
:102A60002046FEF797FE0646304670BD2DE9FC4134
:102A700080460D4601270124002600270EE06B4604
:102A80000122D103404600F033F9044614B1204638
:102A9000BDE8FC81BDF8000000F00807002FEED073
:102AA00026E030224FF40041404600F077F904461A
:102AB000601C08B92046EBE72B464FF450724FF4E8
:102AC0008061404600F014F904460CB12046DFE76F
:102AD0006B460122D103404600F00AF904460CB1CE
:102AE0002046D5E7BDF8000000F00807701CC6B20C
:102AF0000FB1052ED5DB042E02DD6FF00700C7E70E
:102B000001AB012248F20D01404600F0F1F8044605
:102B1000BDF80400A5F88006BDF8000000F0010033
:102B2000A5F882060CB12046B2E7B5F88206AFE7F9
:102B30002DE9F04F89B081460C462146484600F009
:102B400073F80690B9F8400602F030FB079032495E
:102B5000079802F03FFC05D24FF08F41079802F032
:102B600075FC0790B9F8000602F020FB82462A495E
:102B7000504602F02FFC05D24FF08F41504602F034
:102B800065FC82460022254B1046590300F066FE84
:102B9000074688462169079802F050FB514601908C
:102BA00002F0BCF901460290079802F025FA039062
:102BB00002F088F93A464346CDE9040101F072FE7D
:102BC000054601F0C3FB8246A08902F0EFFA804679
:102BD0001349069802F03AFC0590616802F02EFB5A
:102BE00007464FF07E5102F099F9064631465046AD
:102BF00002F002FA0546414602F028FC8346584698
:102C0000A16802F0F9F90546064902F087F9834602
:102C1000584609B0BDE8F08F00FEFF460000324084
:102C2000333353400000C8412DE9F04F87B00546CB
:102C30000C46B5F8540602F0B9FA06462849304663
:102C400002F0C8FB05D24FF08F41304602F0FEFB88
:102C50000646B5F88006C0F3812A504601F0BCFD57
:102C600007463A460B4600204FF0804100F0F6FD43
:102C7000CDE9020194F8240001F0C5FD07463A466B
:102C80000B4600204FF0804100F0E8FDCDE9000147
:102C9000DDE9022301F048FCCDE9040101F056FB17
:102CA0008146B4F9000002F069FA0590B4F9020017
:102CB00002F064FA83463146484602F0BFFA5946AC
:102CC000049002F0C3FB8046059902F095F907468F
:102CD000044902F023F90646304607B0BDE8F08FFC
:102CE00000FEFF463333534010B500F065FC10BDC5
:102CF0002DE9F05F06460F4690469A4600F000FD2B
:102D0000002141EA4601C8B200F0C8FC05462DB1D9
:102D100000F010FD4FF0FF30BDE8F09F380A00F0E2
:102D2000BDFC054625B100F005FD4FF0FF30F3E78F
:102D3000F8B200F0B3FC054625B100F0FBFC4FF003
:102D4000FF30E9E700F0DCFC012101EB4601C8B2ED
:102D500000F0A4FC054625B100F0ECFC4FF0FF307C
:102D6000DAE7002414E0012000F064FC8346A8F1B7
:102D70000101A14201D0012100E00021084600F03C
:102D800059FC814649EA0B202AF81400601C84B2E1
:102D90004445E8DB00F0CEFC0020BDE72DE9F04122
:102DA00007460D46164600F0ABFC002141EA4701FC
:102DB000C8B200F073FC04462CB100F0BBFC4FF02D
:102DC000FF30BDE8F081280A00F068FC044624B119
:102DD00000F0B0FC4FF0FF30F3E7E8B200F05EFC2B
:102DE000044624B100F0A6FC4FF0FF30E9E7300ABA
:102DF00000F054FC044624B100F09CFC4FF0FF307E
:102E0000DFE7F0B200F04AFC044624B100F092FC87
:102E10004FF0FF30D5E700F08DFC0020D1E7F8B58A
:102E200006466B46012248F20D013046FFF760FF6F
:102E3000054655B9BDF8000040F48054224648F2DA
:102E40000D013046FFF7AAFF05462846F8BDF8B544
:102E500007460C466007850D6B46012248F20D01BE
:102E60003846FFF745FF064666B9BDF800004FF645
:102E70007F4108400543AAB248F20D013846FFF7EA
:102E80008DFF06463046F8BD70B5002100230F22A5
:102E9000C47804B3154C246804F4E064C4F5E06419
:102EA000210AC1F10403CA40447804FA03F184788A
:102EB0001440214309010E4C0678A155047804F012
:102EC0001F050124AC4005786D11AD0005F1E0252A
:102ED000C5F8004109E0047804F01F050124AC4066
:102EE000044D0678761145F8264070BD0CED00E0E3
:102EF00000E400E080E100E002490143024A116081
:102F0000704700000000FA050CED00E029B1064A08
:102F100092690243044B9A6104E0034A9269824336
:102F2000014B9A61704700000010024030B500214B
:102F30000022002400232D4D6D6805F00C0121B105
:102F4000042905D0082923D105E0294D056022E098
:102F5000274D05601FE0254D6D6805F47012234D67
:102F60006D6805F48034022505EB92421CB9214DB1
:102F7000554305600BE01D4D6D6805F400351DB12E
:102F80001C4D5543056002E0194D5543056002E0B4
:102F9000174D056000BF00BF144D6D6805F0F001CE
:102FA0000909154D6B5C0568DD4045600F4D6D6886
:102FB00005F4E061090A104D6B5C4568DD408560F1
:102FC0000A4D6D6805F46051C90A0B4D6B5C45688C
:102FD000DD40C560054D6D6805F44041890B074D26
:102FE0006B5CC568B5FBF3F5056130BD00100240B0
:102FF00000127A0000093D000A0000201A0000209B
:1030000010B500F001F810BD0CB500200190009043
:103010003348006840F480303149086000BF3048D0
:10302000006800F4003000900198401C0190009866
:1030300018B90198B0F5A06FF1D12948006800F4E3
:10304000003010B10120009001E0002000900098B5
:10305000012843D12348006840F01000214908604E
:103060000846006820F0030008600846006840F049
:10307000020008601A4840681949486008464068DC
:1030800048600846406840F48060486008464068F0
:1030900020F47C1048600846406840F4E81048601E
:1030A0000846006840F08070086000BF0C48006867
:1030B00000F000700028F9D00948406820F00300B3
:1030C000074948600846406840F00200486000BF79
:1030D0000348406800F00C000828F9D10CBD00003E
:1030E0000010024000200240042808D14FF0E021E7
:1030F000096941F004014FF0E022116107E04FF04F
:10310000E021096921F004014FF0E02211617047CC
:1031100010B51348006840F00100114908600846E6
:103120004068104908400E494860084600680E494A
:1031300008400B4908600846006820F480200860B9
:103140000846406820F4FE0048604FF41F00886085
:10315000FFF756FF4FF000600449086010BD000003
:10316000001002400000FFF8FFFFF6FE08ED00E04F
:1031700010B540F225511D4800F04AF810B31B4825
:1031800000F002F9C4B21A48008800F40040C8B93F
:103190001748008800F4804060B10A2C03D000205A
:1031A0001349088020E01248008840F4004010498C
:1031B000088019E00D2C06D10D48008840F48040AD
:1031C0000B49088010E00A480088C0F30D00094947
:1031D0000C5407480088401C0549088008460088B0
:1031E000C72801DD0020088010BD00000038014024
:1031F00008000020A843002021B1828942F4005237
:10320000828104E082894DF6FF731A408281704703
:1032100070B50246002400230025002040F66A16FF
:10322000B14200D100BFC1F3421501F01F030126D6
:1032300006FA03F3012D02D19689334006E0022DF0
:1032400002D1168A334001E0968A33400C120126DF
:1032500006FA04F41688344013B10CB1012000E0E2
:10326000002070BDF0B50346002400260025002094
:1032700040F66A17B94200D100BF1846C1F34214A4
:1032800001F01F06012707FA06F5012C01D10C30C9
:1032900004E0022C01D1103000E014301AB10768AC
:1032A0002F43076002E00768AF430760F0BD0000EE
:1032B0002DE9F04786B005460E460024A24600BF21
:1032C000A1460027B08900B100BF2F462C8A4CF6DA
:1032D000FF700440F08804432C82AC894EF6F31052
:1032E0000440B08831890843718908430443AC81A4
:1032F000AC8A4FF6FF400440B0890443AC8201A879
:10330000FFF714FE1F48874202D1DDF810A001E04C
:10331000DDF80CA0A88900F4004040B10AEBCA0017
:1033200000EB0A1031684900B0FBF1F807E00AEB46
:10333000CA0000EB0A1031688900B0FBF1F8642084
:10334000B8FBF0F004012009642101FB1089A88971
:1033500000F4004040B1322000EBC900B0FBF1F0B6
:1033600000F00700044308E0322000EB091064215C
:10337000B0FBF1F000F00F0004432C8106B0BDE873
:10338000F08700000038014001468888C0F308003B
:103390007047490050EAC12018BF04204A0D18BFE9
:1033A00040F0010040F2FF72B2EB515F08BF40F005
:1033B0000200012808BF052070472DE9F0414F1E8B
:1033C00000EBC7010446D1E9000115461E4637F05F
:1033D00006020DD02A46334601F064FA7F1E04EB44
:1033E000C703D3E9002300F0E3FF37F00602F1D171
:1033F000022F25D0042F13D0062F18BFBDE8F0816F
:103400002A46334601F04EFAD4E90A2300F0D0FFF1
:103410002A46334601F046FAD4E9082300F0C8FFF3
:103420002A46334601F03EFAD4E9062300F0C0FFF5
:103430002A46334601F036FAD4E9042300F0B8FFF7
:103440002A46334601F02EFAD4E9022300F0B0FFF9
:103450002A46334601F026FAD4E90023BDE8F041BC
:1034600000F0A6BF002213461046014901F05CB8E7
:103470000000F03F00F09CBF0022134610461146AA
:1034800001F052B840F2013200204FF0E04102F06A
:1034900086B80000024A0020110702F080B8000040
:1034A00001FDFFFF30380A2801D2012070470020BB
:1034B0007047014600BF704710B56FF00400FFF77A
:1034C00013FE0A4800680A49B0FBF1F00949087088
:1034D0000846007800EB4001C1EBC0104FF6FF71C9
:1034E00001EAC0000449088010BD0000200000204F
:1034F00000127A0000000020020000200146114A5C
:1035000012884A434FF0E0235A6100229A611A461A
:10351000126942F001021A6100BF4FF0E022106907
:1035200000F001021AB100F48032002AF5D04FF009
:10353000E022126922F001024FF0E0231A6100221A
:103540009A6170470200002000BF054A128802F00D
:103550004002002AF9D0C2B2014B1B1D1A807047ED
:103560000038014008B508E00721009102E0009909
:10357000491E009100990029F9DC011EA0F101000B
:10358000F2D108BD10B580210A48FEF705FE4021A2
:103590000848FEF701FE0220FFF7E4FF80210548FE
:1035A000FEF7FCFD0220FFF7DDFF80210148FEF75A
:1035B000F3FD10BD000C014008B501210820FFF704
:1035C000A5FC8020ADF8000003208DF80200142037
:1035D0008DF8030069460948FEF74AFD4020ADF822
:1035E000000069460548FEF743FD80210348FEF7C9
:1035F000D5FD40210148FEF7D1FD08BD000C01407A
:1036000010B580210A48FEF7C7FD40210848FEF7A3
:10361000C5FD0220FFF7A6FF80210548FEF7BEFD8D
:103620000220FFF79FFF80210148FEF7B5FD10BD86
:10363000000C014070B50546002440211648FEF7F5
:10364000ADFD002619E06006040E80211248FEF749
:10365000A3FD0220FFF786FF80210F48FEF79EFDA5
:103660000220FFF77FFF40210B48FEF78CFD012869
:1036700001D144F00104701CC6B2082EE3DB8021A6
:103680000548FEF789FD15B1FFF77CFF01E0FFF764
:10369000B7FF204670BD0000000C014070B5044625
:1036A00000251DE080211548FEF776FD04F080001E
:1036B00020B140211148FEF771FD03E040210F4881
:1036C000FEF76AFD0220FFF74DFF6006040E802121
:1036D0000A48FEF763FD0220FFF744FF681CC5B2ED
:1036E000082DDFDB80210548FEF756FD4021034809
:1036F000FEF754FDC820FEF753FD70BD000C0140DD
:1037000010B540210A48FEF749FD80210848FEF720
:1037100045FD0220FFF726FF40210548FEF73CFD4E
:103720000220FFF71FFF80210148FEF735FD10BD85
:10373000000C014010B580210C48FEF72DFD402102
:103740000A48FEF729FD0220FFF70CFF80210748F9
:10375000FEF724FD0220FFF705FF40210348FEF796
:103760001DFD0220FFF7FEFE10BD0000000C014011
:1037700008B54FF4A060FFF7BFFBFFF79DFE4FF4C5
:10378000E13000F07DFD2AA0FCF72CFDFFF7ACFA3C
:1037900004213320FFF75BFB3320FFF740FB274971
:1037A0003320FFF719F926492448FFF721F93DE0B6
:1037B000002419E023493320FFF758F90746204930
:1037C0002048FFF7B5F905464FF08241284601F041
:1037D0003DFE06461C4833461C4A194900901948CC
:1037E000FEF718FD601CC4B2022CE3DB002415E0D8
:1037F00000250DE005EB4411134A52F8210001F0B9
:1038000061FB064632460B4611A0FCF7EBFC6D1C33
:10381000202DEFDB10A0FCF7E5FC641C182CE7DB87
:103820000DA0FCF7DFFC6420FFF768FEC0E7000096
:10383000555341525431204F4B0D0A00A4360020FD
:1038400034000020243D0020A42A00203333733F9D
:1038500025362E32662000000D0A00002DE9F04DBD
:103860001D460C4698B0174621F0004123F0004356
:10387000002814BF4FF0010C4FF0000C0CEB440C6F
:10388000FE4A0CEB02064FEA620C66452BD33E0063
:1038900018BF012606EB45061644F94A964222D384
:1038A000F84A53EA070C02D0944205D148B918B03F
:1038B00000201146BDE8F08D002808BF4FF0000C35
:1038C00001D04FF0010C0CEB440212F5001F0AD896
:1038D000002F14BF4FF0010C4FF0000C0CEB450211
:1038E00012F5001F07D918B03A462B462146BDE80D
:1038F000F04DFFF7BFBD0022DFF88CA3002CB8BF4E
:10390000534526DADFF884C36345A8BF022220DAD4
:10391000DFF870C39C451CDCDFF874C30CEB235C40
:10392000BCF1140F08DDCCF1340627FA06FC0CFAC2
:1039300006F6BE420DD108E05FB9CCF1140623FAB9
:1039400006FC0CFA06F69E4203D10CF00102C2F10D
:10395000020251EA000C19D1002D17DA002C18BF11
:10396000022A01D0012A07D00220FCF7FEFC18B081
:10397000BDE8F04DFFF776BD0220FCF7F6FCFFF73F
:1039800071FD18B081F00041BDE8F08DB7F1000C79
:103990006CD1534525D104F1804212F5801201BF4C
:1039A00000280020B74918B008BFBDE8F08DB54821
:1039B000884207DC002DA1BF6046294618B0BDE84B
:1039C000F08D07E0281E05DA80F0004118B060464F
:1039D000BDE8F08DAF497944D1E9000118B0BDE8E8
:1039E000F08DDFF8A0C2634525D1002D1FDA19B193
:1039F000514512D1D8B909E0002840F0EC82A24A22
:103A0000214618B062F31E01BDE8F08D002021466A
:103A100018B060F31E01BDE8F08D08DA18B0234637
:103A2000BDE8F04D02460020614600F07DBD18B0B3
:103A30002146BDE8F08D514518DAB5F1804F0DD023
:103A4000A5F1005CBCF1FF5C10D1B4F1000C0DDB02
:103A500018B06146BDE8F04D00F0ECBB234618B04D
:103A60000246BDE8F04D194600F01CBF060024F0E8
:103A7000004C3BD1D9B1514533D1002C06DD002D8E
:103A8000A1BF0020514618B0BDE8F08D002C01DD2B
:103A9000002D1BDB002C13DA002D11DB012A4FF067
:103AA000000014BF78497C4918B0BDE8F08D022AA7
:103AB00018BF002C0AD0012A08D1002C06DA0AE02F
:103AC000002CB8BF002D11DA012A04D0002018B054
:103AD0000146BDE8F08D18B000204FF00041BDE870
:103AE000F08DA1F14050B0F17F601AD0012000EBC1
:103AF000E47050EA020421D0624C521E4FF0000BD9
:103B0000104304BF4FF0000B644C654883427CDDDA
:103B1000644A654893421FDD884217DB002D25DB90
:103B200037E0002C00DA4AB1022A0CBF01204FF026
:103B3000FF3018B0BDE8F04D00F04EBE0120FCF79C
:103B400014FC18B0BDE8F04DFFF796BC4D4A8A4210
:103B500002DC002D0ADC1CE0814202DA002D18DABA
:103B600004E0484B994220DD002D12DD0220FCF7D5
:103B7000FCFBFFF787FC05460E46002253465846DD
:103B8000214600F08FFE18B066F31E012846BDE8FE
:103B9000F08D0220FCF7E9FBFFF77CFC0A4621468A
:103BA00018B062F31E01BDE8F08D00223046614678
:103BB00001F09EF880460E466FF0010201F0EFFC26
:103BC0004FF05532394B00F0A1FF4246334600F02A
:103BD00069FE0022364B00F099FF8246424633468A
:103BE00004911046194600F05DFE5246049B00F019
:103BF00059FE8A4600904FF0C0422E4B4046314657
:103C000000F050FE2C4A2B4B00E027E0CDE90601E6
:103C10005146009800F046FE82460191274A284B03
:103C20004046314600F03EFE5246019B01F060F8EE
:103C300082460B4602460591DDE9060100F0B8FB1D
:103C4000DDE9062300268846304601F051F8524649
:103C5000059B00F05BFF024600F07EB90020B1F545
:103C6000801F07DA35223046614601F098FC06468F
:103C70006FF0340000EB215024E00000FFFF1F0034
:103C8000FFFF0F000000F03F0000F07F0000404306
:103C900001FCFFFFDE1C00000000F0FF0000F0BF91
:103CA0000000E0410000F043FFFFEF3F5555D53FD6
:103CB0000000E03F4715F73FFE822B6544DF5DF8CB
:103CC0000BAE543EA0F2FF300190C1F3130040F060
:103CD0007F6141F040510291FE498842D8BF0020E7
:103CE00004DDFD498142C8BF012001DD0D9008E0DF
:103CF00000200D900198401C01900298A0F58010C2
:103D000002900299F54878440B910D9900EBC1009F
:103D1000D0E900230F9330460A920B9900F0E8FF98
:103D2000CDE90601DDE90A2130460F9B00F040FB9A
:103D300002460B460020EA4900F0F6FB05910246D8
:103D40000B460090DDE9060100F0ACFD1490E5485B
:103D50008A464FF0000878440299006812904FF0AC
:103D6000005040EA61010D980F9B01EB804000F587
:103D7000002109910A9A129800F0BAFF32460B9B73
:103D800000F0C4FE4246534600F08CFD0646029108
:103D900040465146099B129A00F084FDDDE9062356
:103DA00000F0B4FE3246029B00F0A2FF059B009A91
:103DB00000F078FD0091149A04905346104619467D
:103DC00000F070FD06460246C7480B4602910621E8
:103DD0007844FFF7F2FACDE90510029B324610460F
:103DE000194600F05FFDDDE9053200F05BFD05914D
:103DF0000646534640461946149A00F0D9FA009BED
:103E0000049A00F04FFD3246059B00F0D1FACDE94F
:103E10000510424653461046194600F043FD002265
:103E2000B24B02910A9000F0C3FADDE9053200F0CE
:103E3000BFFA0E464246AD4B404600F059FF029B8A
:103E40000A9A00F055FFDDE9053200F05FFE4246B8
:103E500002910A9033461046514600F023FDCDE909
:103E600006015346149A02990A9800F01BFD8A46EF
:103E70000290334642460099049800F013FD5346E1
:103E8000029A00F095FA82460B4602460591DDE95A
:103E9000060100F08DFADDE906230020884606467B
:103EA00000F026FF5246059B00F030FE8246099145
:103EB0004FF060428E4B3046414600F0F3FC0490D8
:103EC00006918C4A8A4B5046099900F0EBFC8246D9
:103ED0000291894A894B3046414600F0E3FC524644
:103EE000029B00F065FA864B7B440D9A03EBC203FC
:103EF000D3E9002300F05CFA0E900791019800F0DE
:103F00006BFC0591DDE9061382460E9A049800F0D9
:103F10004FFA7C4A7A440D9B02EBC303D3E900239A
:103F20000093029200F044FA5246059B00F040FADA
:103F30000026884652463046059B00F0D9FE009B7D
:103F4000029A00F0D5FE069B049A00F0D1FE079B72
:103F50000E9A00F0DBFD024600200B460290384628
:103F6000294600F09FFC824601912B4638461946AF
:103F7000029A00F0BDFE3246434600F093FC5246E2
:103F8000019B00F015FA07468A4632464346294609
:103F9000029800F087FC05460E463A46534600F06C
:103FA00007FA594A8846914221DBA8EB020353EAFB
:103FB000000210D12A46334600F09AFECDE90401F2
:103FC000524A534B3846514600F0F2F9DDE90423DA
:103FD00000F066FD21D20220FCF7C7F9FFF752FA84
:103FE0000A46214618B062F31E01BDE8F08D494B28
:103FF00028F000429A4210D3474A08EB020353EAE2
:1040000000027FF4C6AD2A46334600F071FE3A4600
:10401000534600F045FD7FF6BCAD0022019228F02A
:1040200000403E493E4A01EB2051824223DA481CBF
:104030004FF4801121FA00F040443A4AC0F30A518B
:104040007A44394BA1F2FF31CB4020EA0303C0F39D
:10405000130040F48010C1F11401C84012680190AF
:10406000B8F1000FBCBF404201902846314600F035
:104070003FFE05460E462A4633463846514600F076
:1040800097F94FF000084246284B4046059100F052
:1040900009FCCDE90601264A264B4046059900F069
:1040A00001FC009102902A4633464046059900F0F3
:1040B0001FFE3A46534600F029FD1F4A1F4B00F0F1
:1040C000F1FB009B029A00F073F90746884602460E
:1040D0000B4635E08E9803007AB60B0026190000D7
:1040E0000000F03F5E1900008C180000000008403E
:1040F00009C7EE3FFD033ADCF5015B14E02F3EBE3D
:10410000641700002817000000009040FE822B6515
:104110004715973C00CC904000346F3F01FCFFFFF7
:104120000000E03F74160000FFFF0F00432EE63F43
:10413000396CA80C615C20BEEF39FAFE422EE63FD6
:10414000DDE9060100F034F9DDE9062305460E46F7
:1041500000F0CEFD3A46434600F0D8FC0F462A4612
:10416000334600901046194600F09CFB82460246FA
:104170002E4888460B4605217844FFF71EF9524623
:10418000434600F08FFB2A46334600F0BFFC8046D2
:104190008A463B4628463146009A00F083FB3B4660
:1041A000009A00F005F90691009000224FF080433C
:1041B0004046514600F09CFD0F460C904246534647
:1041C0002846314600F06EFB3B460C9A00F0ACF9F5
:1041D000069B009A00F08CFD2A46334600F088FDCD
:1041E0000022134B00F092FC054601980E4601EBAD
:1041F00000510815002810DC28463146019A01F0CC
:10420000CEF9FFF7C6F8042808BFFFF743F92846A0
:104210003146019A01F0C3F905460B4618B02A460B
:1042200058462146BDE8F04D00F03CBB1415000097
:104230000000F03F2DE9F04106460F4600F072FC09
:10424000041E0D4618BF0120284320F00040C0F195
:104250007F6000F1E040C00F0ED0301C18BF01207D
:10426000384320F00040C0F17F6000F1E040C00F13
:1042700004BF0120FCF779F820462946BDE8F0810B
:1042800010B586B00446012144F20400FEF73EFE5C
:104290004FF40070ADF8140003208DF816001820BC
:1042A0008DF8170005A91C48FDF7E2FE4FF4806069
:1042B000ADF8140004208DF8170005A91648FDF785
:1042C000D7FE25208DF8000003208DF801008DF821
:1042D000020001208DF803006846FEF7D5FD019429
:1042E0000020ADF80800ADF80A00ADF80C00ADF8FC
:1042F00010000C20ADF80E0001A90848FEF7D8FF09
:10430000012240F225510548FEF7ACFF0121034888
:10431000FEF772FF06B010BD0008014000380140F2
:1043200010B500290AD00878002807D0054878443D
:10433000FCF790FB002801D0002010BD0248784413
:1043400010BD0000461400003E14000021F00042A1
:10435000A2F16052B2F5801F01F0004328BFD2F1F4
:104360007F6C0BD95FEA001C43EAC20242EB50703B
:1043700018BF704728BF20F001007047B2F5801FBA
:10438000BCBF184670474FEA410C1CF5001F02D213
:10439000084601F01AB870B500F02EFB0000008945
:1043A000FFF7F6BF4FF00040A0F580007047000017
:1043B00010B591EA030F48BF83F0004300F1A084D9
:1043C000841A71EB030C05D2121943EB0C03001B8A
:1043D00061EB0C01DFF824E14FEA1154A4EB135C0C
:1043E0001EEA430F18BF9EEA445F73D023EA0E0310
:1043F000DCF1200E21EA045143F4801332D322FA77
:104400000CFE10EB0E0023FA0CFE41EB0E01CCF17A
:10441000200E03FA0EFE10EB0E0051F10001B1F573
:10442000801FCCF1200E32D201EB045112FA0EF2B1
:10443000BDE8104058BF7047401C38BF5FEA4202D9
:1044400018BF7047002814BF20F0010041F100019F
:104450004FEA410313F5001F38BF7047A1F1C04177
:1044600000F018BB012A43EB0302ACF1200CDCF195
:104470001F0E32BF4FF0000E23FA0CF310EB0300B7
:1044800041EB0451B4EB115FD0D0A1EB045101F525
:10449000801149085FEA300001EB04510ED350F15E
:1044A000000038BF12FA0EFE08D1BDE81040C9E77F
:1044B000401C38BF5FEA4202CAD1C3E7BDE81040E2
:1044C0004FEA410313F5001F38BF7047A1F1C04107
:1044D00000F0E0BA9EEA445F08D011EA5E0FBDE842
:1044E000104004BF01F0004100207047BDE81040BB
:1044F00070B500F081FA00BF64FBBE3E0000E0FF33
:1045000002494FF0000001F018B800BF0000F87F2A
:10451000491058BFC1F140415B1058BFC3F140433F
:104520008B42EFF3008070472DE9C04130B4DFF8D3
:10453000A0C23CEA111418BF3CEA131400F0EC804E
:1045400081EA03051CEA111444EAD57418BF1CEA79
:10455000131500F0C780A4EB05044FF0004545EAB1
:10456000C12145EAC32341EA505143EA525304F1C1
:104570007F74994204F500344FEAC0204FEAC2220A
:1045800008BF904200F09C804FEA13650FF240167E
:10459000765D4FEA134506FB05F7C7F1807706FB0A
:1045A00007F74FEAD737A7FB03687642C8F580388C
:1045B000A7FB06CE38BFA8F1010807FB08E64FF0BD
:1045C000000EA6FB028CE6FB03CEDCF1000CCEF164
:1045D000004E38BFAEF1010EA6FB0C584FF000079D
:1045E0004FF00005E6FB0E87A1FB08C6A0FB07CE37
:1045F00016EB0E0645F10005E1FB076515F1E04EEF
:104600007EBFA4F580345FEA46066D4116F180074F
:1046100045F100054FEA17274FEA066647EA0567A6
:10462000A6F1DE46B6F1805F4FEA15251FD9384660
:1046300024F0010C05EBC471BCF1FE6F01EB0C1111
:1046400002D8F0BCBDE8008124425CBF01F5801EA9
:104650009EEAC47F02D4F0BCBDE80081244238D475
:10466000F0BCA1F1C041BDE8004100F013BA4FEA2F
:10467000D22242EA43524FEAD323A7FB02864FEAF3
:10468000D02040EA415007FB03661EEA0E0F4FEAB6
:10469000D12105FB026658BFA6EB0056B6EB0056CB
:1046A0004FEA520E4EEAC37E18EB0E0E56EB530E37
:1046B000BDD518EB02085E417F1C55F10005B6E739
:1046C0004FF480154FF000074FF000064FF0000840
:1046D000ADE7F0BC4FF0000001F1C04101F0004136
:1046E000BDE8008111EA0C1F0CEA131500D00CE0A4
:1046F00013EA0C1F00F025804FF00000F0BC81EAA7
:10470000030101F00041BDE80081F0BCBDE80041BB
:1047100081EA030100F0BEB9F0BCBDE8004170B50C
:1047200000F06AF9097EFC3E00F007B881EA030157
:104730004FF0000001F00041704781EA030100F0F2
:10474000A9B9F0BCBDE800414FF000002149704715
:10475000FFFDFBF9F7F5F4F2F0EEEDEBE9E8E6E446
:10476000E3E1E0DEDDDBDAD8D7D5D4D3D1D0CFCDCD
:10477000CCCBCAC8C7C6C5C4C2C1C0BFBEBDBCBB06
:10478000BAB9B8B7B6B5B4B3B2B1B0AFAEADACAB01
:10479000AAA9A8A8A7A6A5A4A3A3A2A1A09F9F9EDB
:1047A0009D9C9C9B9A99999897979695959493938D
:1047B000929191908F8F8E8E8D8C8C8B8B8A898924
:1047C00088888787868585848483838282818180A7
:1047D0000000FF070000F87F10F0004248BF404291
:1047E000B0FA80F310FA03F10AD0C3F11D0303F508
:1047F00080634FEA415002EB035202EBD121704734
:104800004FF000007047B0FA80F310FA03F10AD0BD
:10481000C3F11D0303F580634FEA41504FEA035291
:1048200002EBD12170474FF00000704751EA030CB2
:1048300017D41CF5801F58BFBCF5801F00F10680FF
:10484000994218BF704708BF9042704707D711F5CB
:10485000801F58BF13F5801F19D4994270478942B1
:1048600070471CF5801F08D5BCF5801FF7D58B421B
:1048700018BF704708BF824270474FF4001C1CEB02
:10488000410F38BF1CEB430F01D28B42704770B50C
:1048900000F0B2F8922449004FF000514FF08053DD
:1048A000FFF736BEDFF848C170B51CEA111E1EBF07
:1048B0001CEA13159EEA0C0F95EA0C0F00F06F80AE
:1048C00081EA030423EA4C134EEAD47E21EA4C1118
:1048D00041F4801143F48013AE44A1FB024CA0FBD1
:1048E0000365AEF17F7E361955EB0C05A1FB034C39
:1048F0004CF10003A0FB021C16EB0C06654153F1C2
:104900000003094218BF46F0010613F4007F0BD1E3
:104910004FEA03314FEA0530340341EA155140EACA
:1049200016506FF003020AE04FEAC3214FEAC52098
:10493000F40241EA555140EA56506FF0020202EB90
:104940002E4201EB025585EACE710AD05FEA440C93
:1049500018BF24F0004450F1000041F1000120EAAA
:10496000D47040F2FE7C624500D270BDA84214BFF4
:104970004FF080444FF04044002E08BF0024BEF1A9
:10498000806FA8BFA1F1C041BDE8704080F2828075
:104990004FF0000001F1C04101F0004170479EEA74
:1049A0000C0F0CEA131518BF95EA0C0F06D04FF048
:1049B000000081EA030E0EF0004170BD00F01CF80B
:1049C0008900013E00F007B800F009B84FEA430C37
:1049D0005FEA5C5C08D081EA030100F05BB84FEA53
:1049E000410C5FEA5C5CF6D14FF000000149704772
:1049F0000000FF070000F87F0EF1020E2EF0030EFC
:104A00005EF8046B364205D4012A43EB030515F525
:104A1000001F12D8012841EB010C1CF5001F0CD817
:104A20000ED14FEAD17C15F5001F0CEB4C0C0CF1AC
:104A3000020C08BF4CEBD37C04E04FF0080C01E003
:104A40004FEAD37C0CEB4C0526FA05F606F0070678
:104A5000B6F1040C06D20EEB860CBDE870404CF0AB
:104A6000010C6047DFE80CF0090B02024FF0004137
:104A70004FF00000A1F5002170BD19461046012835
:104A800051EB010418BFD4F5001484BF002001F0DD
:104A9000004170BD0808A0F500114FEA31017047D0
:104AA00053EA010C17D41CF5801F58BFBCF5801FBA
:104AB00000F106808B4218BF704708BF82427047E2
:104AC00007D713F5801F58BF11F5801F19D48B42EB
:104AD00070479B4270471CF5801F08D5BCF5801FAE
:104AE000F7D5994218BF704708BF904270474FF4FE
:104AF000001C1CEB430F38BF1CEB410F01D2994245
:104B000070470FB40CBC03BCFFF7C1BE91EA030FA2
:104B100010B581F000413FF553AC83F0004300F045
:104B2000EFB800002DE9F04101F5801CBCF5001F35
:104B3000C0F2C3804FEA115C21EA0C510CF1FD0C6C
:104B400041F480115FEA5C0C0CF5C07C01D340009D
:104B500049413DA4890241EA905187028E0E0A0C18
:104B6000A45D04FB04F602FB06F6C6F14046A4FB76
:104B70000662F60D46EA422606FB06F4A4FB012374
:104B80005242C3F1404338BF5B1EA6FB02420024E1
:104B9000E6FB0324D20B42EA4446A6FB0623A1FB14
:104BA00002E2A3FB07E4A4184FF0000252F1000256
:104BB000E3FB01426442C2F1404E38BFAEF1010E48
:104BC000A6FB04234FF00002E6FB0E32A2FB0346D5
:104BD0004FF00004B61954F10004E2FB0264A1FB9B
:104BE00006E6A4FB07E816EB08064FF0000858F1AC
:104BF0000008E4FB01687642C8F1405838BFA8F1CC
:104C00000108A2FB06E4A3FB08E52D194FF0000400
:104C100054F10004E2FB0854A1FB05E6A7FB04E8FD
:104C200018EB06084FF0000656F10006E1FB04867B
:104C300018F1200556F10006A809A8F11B08B109D2
:104C400008F03F08B8F10A0F40EA86601CD901EB72
:104C50000C51BDE8F08100BFFCF5EEE8E2DDD8D3F1
:104C6000CFCBC7C3C0BDB9B6B4B1AEACA9A7A5A3DD
:104C7000A19F9D9B9A9896959392908F8D8C8B89EE
:104C80008887868584838281A0FB006800FB01F20F
:104C900008EB4208B8EB872807D5341858EB010415
:104CA000D5D5401C51F10001D1E7341A78EB01044D
:104CB000CDD4401E71F10001C9E75FEA4C0C5FEAF8
:104CC0009C5C0DD105D34FF0000001F00041BDE820
:104CD000F081BDE8F04170B5FFF78EFE6DDBFFBEE1
:104CE000BDE8F0414FF00000004970470000F87F38
:104CF00010B591EA030F48BF83F000433FF560AB66
:104D0000841A71EB030C07D212198CF0004C43EBA0
:104D10000C03001B61EB0C01DFF8A4E14FEA115416
:104D2000A4EB135C1EEA430F18BF9EEA445F00F039
:104D3000B08023EA6E03524221EA0451C3EB6E03B2
:104D400038BF5B1EDCF1200E25D322FA0CFE10EBDF
:104D50000E0043FA0CFE41EB0E01CCF1200E03FADB
:104D60000EFE10EB0E0051F10001CCF1200E29D403
:104D700012FA0EF201EB0451BDE8104058BF704723
:104D8000401C1CBFB2F1004F704700280CBF491CEB
:104D900020F00100704712EB020E43EB030218BF34
:104DA0004FF0010E4EEA4202ACF1200CDCF11E0E77
:104DB00054D943FA0CFE10EB0E0051F1FF31CCF147
:104DC0001E0ED5D50EF1010E12FA0EFE404141EB3A
:104DD000010101EB445C5FEA5C5C10D910EBDE7012
:104DE00001EB045138BFBEF1004FBDE8104018BFC1
:104DF000704700280CBF491C20F00100704730D2DA
:104E00004FEAD42C11F5001124F400641BD0B1FA40
:104E100081F20B3AA41AA41ED2F12003914030FA79
:104E200003F31943904001EBCC71002C01EB0451CA
:104E3000BDE81040A8BF704701F1C0414FF000002D
:104E400001F000417047B0FA80F310FA03F100D18D
:104E500010BDE41A173C4805C90AE4E701EB045108
:104E600010BD491001EB0451BDE810404FEA30007D
:104E700002E04FF0000170474A0008BF0042F8D03E
:104E8000B2F5001F28BF704701F000414FF000004D
:104E900070479EEA445F07D011EA5E0FBDE81040FC
:104EA00004BF002100207047BDE8104070B5FFF737
:104EB000A3FD00BF40DFF63E83F00041104670477F
:104EC0000000E0FF43004FEAD30C4FEA3C0C4340A4
:104ED0001FBF40070CF1605113F0FE4F70471CF0EC
:104EE000006F03D100200CF0004170470CF000432C
:104EF00043EA507010B540EACC0000F020FA00BF41
:104F0000000000924FEA0001FFF7C4BD4FF00041DE
:104F10004FF00000A1F500217047000090EA010F5A
:104F200048BF81F0004100F19882421A3CBF801ACC
:104F300089184FEAD0524FF07F4C1CEA410FA2EB88
:104F4000D15318BF9CEA026F00F03B804FF0004C39
:104F50004CEA00204CEA012121FA03FC10EB0C0C76
:104F60001ED202F1FF325FEA1C2040EBC25038BF74
:104F700070471CF07F0F4FEA400C18BFBCF17F4F09
:104F800038BF7047C3F12003994008BF20F00100EB
:104F9000BCF17F4F38BF7047A0F1C04000F015BA98
:104FA0004FEA3C00000A40EBC25028BF1CF0FF0F44
:104FB0004FEA400CE6D018BFBCF17F4F38BF7047B6
:104FC000EAE79CEA026F05D010EA5C0F08BF00F028
:104FD0000040704710B500F0B2F900BF64FBBE3E60
:104FE000401058BFC0F14040491058BFC1F1404186
:104FF0008142EFF3008070474FF47F0C1CEAD0121F
:105000001EBF1CEAD11392EA0C0F93EA0C0F00F0BA
:10501000858090EA010F48BF42F4807240F4000C92
:1050200041F400002CF07F4120F07F4000B5814228
:10503000A2EB03020FF2081CACEB504EC0F10000D3
:105040009EF800E04FEA4E0E00FB0EFC38BF490010
:105050004FEA2C1C02F5FA020CFB0EF34FEACE1EAF
:105060004FEA112C4FEAC1210EEB635E42EB224264
:105070000EFB0CFC4FEA1C5300FB03114FEA112CF2
:105080004FEA01310EFB0CFC4FEADC4C00FB0C112B
:10509000C14228BF09184CEB03335DF804EB10EB59
:1050A000410143EBC250B2F57C0F38BF704729D5A0
:1050B00012F0F00F1CBF00F1C04000F0004070473C
:1050C000008182838485868788898B8C8D8E8F91E1
:1050D0009293959697999A9C9D9FA0A2A3A5A7A805
:1050E000AAACAEB0B2B3B5B7B9BCBEC0C2C5C7C931
:1050F000CCCED1D4D7D9DCDFE2E6E9ECF0F3F7FA95
:10510000FE0000004FEA400C0CF1807CBCF17E4FA9
:1051100028BF7047B0F1C04000F057B990EA010FC6
:105120000CEAD11348BF42F48072624538BF634530
:1051300007D213F47F0F16D080EA010000F0004080
:10514000704710B500F0FBF8097EFC3E00F005B892
:1051500080EA010000F00040704780EA010000F0A2
:10516000004000F032B912F47F0F04BF02487047CC
:1051700080EA010000F029B90000C07F10F0004172
:1051800048BF4042B0FA80F310FA03F2C3F19D0326
:105190000BD051EAC35101EB1220530638BF7047C0
:1051A00000F1010008BF20F001007047B0FA80F361
:1051B00010FA03F2C3F19D030AD0D90501EB1220C6
:1051C000530638BF704700F1010008BF20F001000E
:1051D0007047000050EA010C00F113801CF5000F2D
:1051E00058BFBCF5000F01D48842704707D710F5AF
:1051F000000F58BF11F5000F15D48842704789423F
:1052000070471CF5000F04D5BCF5000FF7D581429F
:1052100070474FF0807C1CEB400F38BF1CEB410FF8
:1052200001D28142704710B500F089F892244900FC
:105230004FF000504FF08051FFF7D2BE4FF47F0C7B
:105240001CEAD0121EBF1CEAD11392EA0C0F93EA9B
:105250000C0F00F0478090EA010F48BF42F48072C3
:105260004FF0004C4CEA00204CEA012102EB030213
:10527000A0FB0113A2F50002002918BF43F00103AF
:105280005B0028BF4FEA330342EB22425FEA132C54
:105290004CEBC2502EBFBCEB436FB2F57C0F704796
:1052A0004FEA036CBCF1004F08BF20F00100B2F5DB
:1052B0007C0F38BF70470BD582F0FF0212F5803F9C
:1052C000C8BF704700F1C040D8BF00F00040704731
:1052D00000F5000C5FEA4C0C48BF7047B0F1C040CD
:1052E00000F073B890EA010F0CEAD11348BF42F402
:1052F0008072624538BF634504D280EA010000F045
:105300000040704710B500F01AF800BF8900013E58
:1053100000F007B800F009B85FEA410C5FEA1C6CC6
:1053200008D080EA010000F050B85FEA400C5FEA64
:105330001C6CF6D14FF00040A0F5800070470EF1D4
:10534000020E2EF0030E5EF8044B244204D44FEA02
:105350004102B2F17F4F11D84FEA4003B3F17F4FC2
:105360000CD80ED14FEAD07CB2F17F4F0CEB4C0C35
:105370000CF1020C08BF4CEBD17C04E04FF0080CA0
:1053800001E04FEAD17C0CEB4C0324FA03F404F067
:105390000704B4F1040C06D20EEB840CBDE81040F7
:1053A0004CF0010C6047DFE80CF0070802024FF0F8
:1053B0000040A0F5800010BD0846420018BFD2F1A1
:1053C000807288BF00F0004010BDFF2141EAD0503C
:1053D000C005704751EA000C00F113801CF5000F66
:1053E00058BFBCF5000F01D48142704707D711F5B3
:1053F000000F58BF10F5000F15D481427047894245
:1054000070471CF5000F04D5BCF5000FF7D5884296
:1054100070474FF0807C1CEB410F38BF1CEB400FF6
:1054200001D28842704780EA010081EA000180EAE7
:105430000100FFF7F8BE80F0004090EA010F7FF511
:1054400074AD81F0004100F008B8000090EA010F4F
:1054500048BF81F000413FF568AD421A04D882F0A0
:105460000042A0EB020011444FEAD0524FF07F4CB3
:105470001CEA410FA2EBD15318BF9CEA026F4AD03D
:105480004FF0004C4CEA00204CEA012121FA03FCC9
:10549000B0EB0C0C0FD412F0FE0F36D05FEA4C00CC
:1054A0001DD5001240EBC25038BF70471CF03F0FB3
:1054B00018BF70470BE0A2F101025FEA1C2040EB2D
:1054C000C25038BF70471CF07F0F18BF7047C3F140
:1054D0002003994014BF401E20F00100704780084F
:1054E0004FEA122308BF7047B0FA80FCA2EB0C020F
:1054F000CCF1280C60FA0CF093EA122F04BF00EBF9
:10550000C25070474FEAC3707047130A5FEADC105D
:1055100008BF7047F6E79CEA026F04D010EA5C0F00
:1055200008BF0020704710B5FFF709FF40DFF63EC7
:1055300081F000407047FAF7F7BF0CF00F03092B1A
:1055400008BF082000F059800A2B0BD0082B18BF89
:10555000704708BF1CF0400F0AD04FF000004FF01A
:10556000000170471CF0400F18BF4FF0004070471B
:105570001CF0100F08D020F0704300F07F4242EA88
:10558000D3014FEA4370704700F0604021F07F4242
:1055900042EA000201F07F4040EA727070474FF02B
:1055A000FF0C4CF4E06C1CEA11531CBF9CEA030C8A
:1055B0009445C2BFDA4201EB02517047002B0DD077
:1055C000BCF1000F0FD0002A01F00041A4BF41F050
:1055D000E04141F07F614FF00000704701F0004171
:1055E0004FF00000704750EA01334FF09B0C18BF9A
:1055F0004CF0806C7EF484AF70471CF4801F11D097
:105600001CF4E02F03D06FEACC31490070474FF013
:105610004050EFF3008222F0704242EA000282F32F
:10562000008870474FF00000704700000000000045
:10563000000000000000F03F000000000000F83F04
:1056400000000000000000000000004003B8E23F3E
:10565000000000000000000006D0CF43EBFD4C3EF0
:10566000033333333333E33FFFAB6FDBB66DDB3FE5
:105670004D268F515555D53F01411DA96074D13F2D
:1056800065DBC9934A86CD3FEF4E454A287ECA3F27
:105690003E5555555555C53F93BDBE166CC166BFA9
:1056A0002CDE25AF6A56113FF16BD2C541BDBBBEA2
:1056B000D0A4BE726937663E000000000000000002
:1056C00002400000000000A00000000005400000B3
:1056D000000000C8000000000C4000000000409CDA
:1056E00000000000194000000020BCBE00000000C7
:1056F00034400000BFC91B8E00000004B54000000C
:10570000504BCFD06607E2CF010000006C41000093
:105710003E8251AADFEEA73401000000D94200000A
:10572000DCB5A0E23A301F97FFFFFFFFB445000051
:10573000FD25A0C8E9A3C14FFFFFFFFFFF3F000009
:105740000000008000000000FF3F0000000000801B
:105750000000000090570008000000203400000006
:1057600028010008C4570008340000209C4A0000AB
:10577000440100081C00000043000000F8FFFFFF88
:105780000C0000000E0000000F0000002E000000C2
:105790000000000000000000000000000000010206
:1057A00003040102030406070809020406080000B6
:1057B00000A24A04000000000000000001020304EF
:0457C00006070809C7
:04000005080000ED02
:00000001FF
